:020000040800F2
:10000000005000204D0100088110000883100008F6
:100010008510000887100008891000080000000003
:100020000000000000000000000000008B1000082D
:100030008D100008000000008F10000891100008CB
:100040009501000895010008950100089501000838
:100050009501000895010008950100089501000828
:100060009501000895010008950100089501000818
:100070009501000895010008950100089501000808
:10008000A1100008AD1000089501000895010008B6
:10009000950100089501000895010008B9100008B5
:1000A00095010008950100089501000895010008D8
:1000B000CD100008D9100008E510000895010008CF
:1000C00095010008950100089501000895010008B8
:1000D0009501000895010008F1100008950100083D
:1000E000FD100008950100089501000800000000BF
:1000F0000000000000000000000000000000000000
:0C01000000000000000000005FF808F1A3
:10010C0010B5054C237833B9044B13B10448AFF345
:10011C0000800123237010BD780000200000000037
:10012C00782F000808B5034B1BB103490348AFF304
:10013C00008008BD000000007C000020782F000823
:10014C00002103E00B4B5B58435004310A480B4B26
:10015C0042189A42F6D30A4A02E0002342F8043BC2
:10016C00084B9A42F9D300F0C7FF02F099FA00F05D
:10017C0081FC7047C430000800000020780000208B
:10018C0078000020AC040020FEE70000402810B5E9
:10019C00014609D1114801F087FA114B10B901221F
:1001AC001A7010BD0022FBE780280ED10B4801F01D
:1001BC007BFA0C4C50B900F180400122202100F553
:1001CC00843001F077FA0123237010BD0022202126
:1001DC00054801F06FFA0023F6E700BF001001405C
:1001EC00CF0200209A0200200008014000210E4A94
:1001FC0030B513880D4C14F8010FA0F14105192DE1
:10020C0006D80233013105299BB2F4D1138030BDDD
:10021C003038092806D80029F3D014F8010C3038EE
:10022C000928EED80133EDE798020020B302002034
:10023C002DE9F04F00270120B946BC463A46022171
:10024C0085B0DFF838A28A4B8A4C00971AF8016FF8
:10025C00A6F1200EBEF15A0F72D8DFE81EF0AE00E8
:10026C006800710071007100710071007100710003
:10027C007100710071005B00710060007100CB00B7
:10028C00B400B600B800BB00C900BE00C100C40079
:10029C00C900710071007100710071007100710072
:1002AC00B400B600B800BB00C900BE00C100C40059
:1002BC00C900CB00CD00CF00D400D700DD00E0009A
:1002CC00E300E600EB00ED00EF00F400FC0005019C
:1002DC001101170171007100710071007100710042
:1002EC00B400B600B800BB00C900BE00C100C40019
:1002FC00C900CB00CD00CF00D400D700DD00E0005A
:10030C00E300E600EB00ED00EF00F400FC0005015B
:10031C00110117011A805A809980D88051E01A80F7
:10032C005A809980DA801A815981988106E01A8066
:10033C005A809980DA80188159819A81DA811982E0
:10034C00A6F1410EBEF1190F00F2A3800026DFF8D2
:10035C0024E122806080A180A281E281218222831B
:10036C006083A18336F803C00EF10C0E2EF806CC78
:10037C0003EB060CBCF802800636BCF804C0122E47
:10038C002EF8048C2EF802CCECD14FF0020C4FF06E
:10039C00000E009D0CEB4C06019605EB4506B6B223
:1003AC00029604EB4E050395CEEB0E18324DB84475
:1003BC00A844002603EB0E0BA6E01A805A80998005
:1003CC00DA801A81B8E71880F8E71880A3E718805C
:1003DC005880F4E718805880ABE7188058809BE76A
:1003EC001880588001E018805A809980D880A2E744
:1003FC0018809DE71A80F4E7188091E718805A80DE
:10040C009980D8808FE7188058808AE718805880A8
:10041C009980DA80188187E718805A80F8E718806D
:10042C005880EDE71880588001E018805A80998038
:10043C00D880EFE71A80F3E71A80F4E718805A8027
:10044C009980DA8003E018805A809980D8801A81CC
:10045C005981988106E01A8058809980D88018813B
:10046C0059819A81D8816AE718805880E8E700BFE3
:10047C00A0020020FA0000201E010020B302002080
:10048C00188058809980DA801881E1E718805A80AA
:10049C00F8E7303E092E27D8009D2DB11AF8016CD3
:1004AC00303E092E7FF673AF0026DFF8CCE02280B9
:1004BC006080A180A281E081218220836083A1835E
:1004CC0036F803C00EF10C0E2EF806CC03EB060C1E
:1004DC00BCF802800636BCF804C0122E2EF8048C30
:1004EC002EF802CCECD150E74FF0010C4FE7BCF1E9
:1004FC00010F2BD13BF8169028F81690029D05EBB6
:10050C0006091FFA89F90136019DAE42EFD10EF1B1
:10051C00060EBEF1120F7FF444AF009D0637013575
:10052C00ADB2052D00957FF491AE002303251E4638
:10053C0002274A4649460F48C4182C2A0DDD5A3367
:10054C00B3F5877FF5D105B0BDE8F08FBCF1020F94
:10055C00D4D1039D35F81690CEE7013292FBF5F01D
:10056C0000EB400082420CBF24F8117024F811609B
:10057C000131E2E71E010020FA00002010B5012431
:10058C000F4B4FF400710F481C7001F08DF840B9FF
:10059C0000F1804022464FF4007100F5883001F0E4
:1005AC0089F83222084B5A630022A3F59233DA639E
:1005BC000422064B1A800122054B1A7010BD00BF95
:1005CC000400002000100140002C01400600002017
:1005DC009E020020012208B50D4B4FF400710D480E
:1005EC001A7001F061F828B100224FF4007109482B
:1005FC0001F060F80022084B5A633222A3F59233C3
:10060C00DA630522054B1A800122054B1A7008BDCE
:10061C0004000020000C0140002C014006000020CA
:10062C009E0200202E4A10B5118829BB2D242D4B7B
:10063C002D481B88008804FB03032C4830F813302A
:10064C005BB92B494B63A1F59231CB63012111802E
:10065C00284A1380284B197010BD012B03D113802D
:10066C00264A137010BD022B2BD132242048446330
:10067C00A0F59230C163E9E7012923D103231A487D
:10068C000288013292B2B2FBF3F303EB4303D31AA9
:10069C009BB202800BB91A4B19701A4B1B8803EBD7
:1006AC0043039A420ADB00230E4A0380138801336A
:1006BC0013800123144A1380144AD2E70022144BEE
:1006CC001A7010BD0229FCD1064B1A88022AF5D9E2
:1006DC0000221A800C4B012219800C4BF0E700BF52
:1006EC00060000202C020020940000201E01002097
:1006FC00002C0140B20200209E0200203202002099
:10070C000000002098020020020000209F02002020
:10071C000400002038B52D4B1C882CB903221A80FC
:10072C0001222B4B1A7038BD012C04D104221A80E3
:10073C00274B1C7038BD022C01D10522EFE7032C8E
:10074C0013D10024234D2C80FFF750FDFFF770FDD3
:10075C002B88214A2149224801F0C6FF204982B248
:10076C00204801F06FFE204BE3E7042C1BD14FF423
:10077C0000711E4800F098FF28B100224FF4007160
:10078C001A4800F097FF0022194B5A633222A3F546
:10079C009233DA630222174B1A802322164B1A80EB
:1007AC000122164BBEE7052C0FD11549154801F057
:1007BC00BFFF202213490B4801F044FE2246BDE83E
:1007CC0038400549074801F05CBE38BD02000020E6
:1007DC002E02002098020020B4020020C32F000833
:1007EC00960000206404002004000020000C01404E
:1007FC00002C014006000020B20200209E020020C6
:10080C001430000833020020614B70B59842054645
:10081C0023D1604B1C7804BB01224FF400715E485D
:10082C001A7000F041FF28B122464FF400715A486B
:10083C0000F040FF594B5A4C1A785A485A49002A32
:10084C0072D132266663C26306220A8000221A70B5
:10085C00564B1A800122564B1A70564B9D4244D16E
:10086C00554E337883B1554C4FF40071238854485E
:10087C000133238000F023FF2388022B04D10023B3
:10088C0023803370FFF7CEFE494C23786BB30022E4
:10089C004FF400614A4800F00DFF00224FF48061D4
:1008AC00474800F007FF474A40491388098801333D
:1008BC009BB2042913803BD1434B1B78ABB1002373
:1008CC001380374A23705363A2F59232D3634FF4EB
:1008DC00006101223A4800F0EDFE01224FF48061E4
:1008EC00374800F0E7FEFFF715FF384B9D424ED11D
:1008FC00374B1A784AB10022402127481A7000F071
:10090C00D3FE002833D1FFF705FF324B1A78002AAB
:10091C003DD00022802120481A7000F0C5FE48BB53
:10092C00BDE87040FFF7F6BE00226263C2638CE73D
:10093C00052901D1284BC0E71B4909889942D4D815
:10094C0000231380164A23705363A2F59232D363AB
:10095C004FF4006101221A4800F0ACFE01224FF462
:10096C008061174800F0A6FEFFF75CFEBDE7FFF7BD
:10097C0005FECAE719491A4801F0DAFE2222184985
:10098C00184801F05FFDBDE87040FFF723BE70BD55
:10099C00240400200400002000100140000000206E
:1009AC00002C014000080040B2020020060000208C
:1009BC009E02002060030020320200203002002042
:1009CC00000801409C020020CF02002020030020E0
:1009DC009F0200202E0200209A020020A02F000867
:1009EC00330200206404002001230021034A137009
:1009FC00034A1180034A1370704700BF04000020A3
:100A0C00020000209F020020012310B590B00A9331
:100A1C0010230B93002302240E934FF4601306A8AB
:100A2C0006940D940F9300F05BFE00B1FEE70F23CC
:100A3C0001934FF4806303900590214601A8029422
:100A4C00049301F015F8044600B1FEE701F0B4F888
:100A5C004FF47A73B0FBF3F000F00EFC042000F0BE
:100A6C0021FC224621464FF0FF3000F0C5FB10B0B0
:100A7C0010BD00002DE9F041A14D9AB000F086FBAD
:100A8C00FFF7C2FFAB69002243F01003AB61AB6907
:100A9C004FF4626103F010030293029BAB69994817
:100AAC0043F02003AB61AB69002403F020030393F4
:100ABC00039BAB69012643F00403AB61AB690227CE
:100ACC0003F004030493049BAB694FF4007843F0E8
:100ADC000803AB61AB6903F008030593059B00F0B9
:100AEC00E9FD00224FF40071874800F0E3FD00227D
:100AFC004FF40071854800F0DDFD4FF40053139363
:100B0C00834B13A980481493159400F0EDFC4FF41B
:100B1C00626313A97B48139314961594169700F0EF
:100B2C00E3FCC02313937B4B13A9774814931596BE
:100B3C0000F0DAFC13A97448CDF84C801496159487
:100B4C00169700F0D1FC13A97048CDF84C80149680
:100B5C001594169700F0C8FC22462146172000F089
:100B6C004BFB172000F07CFB22462146282000F08E
:100B7C0043FB282000F074FB6B69224633436B6106
:100B8C006B692146334001931020019B00F034FB2C
:100B9C00102000F065FB21462246112000F02CFBB2
:100BAC00112000F05DFB4FF4E1335B485B4984603E
:100BBC0080E80A000C23C460046143618461C46151
:100BCC0001F012FC00B1FEE74FF080434FF6FF1529
:100BDC00534C84E8280040F2F313A0602061A0611C
:100BEC002046E36001F026FA00B1FEE74FF4805690
:100BFC0013A92046139601F085F800B1FEE70C907E
:100C0C000D900CA9204601F01FFB00B1FEE7454CEE
:100C1C00454BA06084E82800C7232061A0612046D2
:100C2C00E36001F007FA00B1FEE713A92046139622
:100C3C0001F068F800B1FEE70C900D900CA920466D
:100C4C0001F002FB00B1FEE743F67F63374C384AF4
:100C5C00A06084E80C00632320616061A0612046E1
:100C6C00E36001F0E7F900B1FEE71AAD45F8486D15
:100C7C002946204601F046F800B1FEE7204601F077
:100C8C00F3F900B1FEE7002306A928480693079361
:100C9C0001F0DAFA024600B1FEE760270D900E90E3
:100CAC000F901090119012900CA920480C9701F005
:100CBC0021FA00B1FEE74FF40053139014901590F5
:100CCC0016901790199013A91848189301F096FADA
:100CDC00064600B1FEE7154800F044F943F67F6381
:100CEC00144CDFF85480636063232046C4F8008002
:100CFC00A660E3602661A66101F09CF9F0B1FEE705
:100D0C00001002400008014000100140000C01409E
:100D1C000000111000003110640400200044004059
:100D2C00240400206003002000040040E4030020A1
:100D3C00002C014020030020000800404FF4805399
:100D4C000CA920460C9300F0DDFF00B1FEE7204615
:100D5C0001F08AF900B1FEE7089009902946204677
:100D6C0001F072FA00B1FEE714901590179008226A
:100D7C0013A92046139701F0BDF9054600B1FEE713
:100D8C00204600F0EFF801224FF40061164800F005
:100D9C0091FC01224FF48061134800F08BFC134846
:100DAC0000F0A4FF124800F0A1FF204600F09EFFC7
:100DBC002946104801F00CFA0821204601F008FAE7
:100DCC000D4B0E495D630E48C8F83C5001F0B0FC69
:100DDC0018220B490B4801F035FB05220A4909483A
:100DEC0001F04FFBFEE700BF000801402404002087
:100DFC0060030020E4030020002C01403530000883
:100E0C003302002064040020B4020020FEE700003E
:100E1C00254B07B59A69032042F001029A619A6941
:100E2C0002F001020092009ADA6942F08052DA6113
:100E3C00DB6903F080530193019B00F0CBF9002296
:100E4C006FF00B00114600F0D7F900226FF00A008A
:100E5C00114600F0D1F900226FF00900114600F0A4
:100E6C00CBF900226FF00400114600F0C5F9002206
:100E7C006FF00300114600F0BFF900226FF0010083
:100E8C00114600F0B9F900224FF0FF30114600F086
:100E9C00B3F9064A536823F0E06343F000735360E0
:100EAC0003B05DF804FB00BF0010024000000140DD
:100EBC001FB50368274A93420CD1274B9A6942F419
:100ECC0000629A619B6903F400630093009B05B078
:100EDC005DF804FBB3F1804F13D103F50433DA69E9
:100EEC001C2042F00102DA610022DB69114603F09A
:100EFC0001030193019B00F07FF91C2000F0B0F975
:100F0C00E5E7164A934210D1134B1D20DA6942F0E3
:100F1C000202DA610022DB69114603F0020302933C
:100F2C00029B00F069F91D20E8E70D4A9342CED1EF
:100F3C00094B1E20DA6942F00402DA610022DB69F7
:100F4C00114603F004030393039B00F055F91E2094
:100F5C00D4E700BF002C0140001002400004004008
:100F6C00000800401FB503680D4A93420CD14FF4A2
:100F7C0080730093022369460A480193039300F09F
:100F8C00B3FA05B05DF804FB074A9342F9D14FF46C
:100F9C008073009302236946019303930348EEE7A1
:100FAC00002C01400008014000080040000C0140EA
:100FBC0030B50268284B87B09A4205464AD103F5F2
:100FCC00E633DA69254842F40032DA61DB6902A9BA
:100FDC0003F400330193019B0C2302930223204C56
:100FEC000393059300F080FA1E4B802223600023AC
:100FFC0020466360A360E26023616361A361E361E7
:10100C0000F062F920B140F21B111748FFF7FEFE09
:10101C001023164A6C636562154C84E80C0000239F
:10102C0080222046A360E26023616361A361E361D7
:10103C0000F04AF920B140F22B110B48FFF7E6FE05
:10104C00002226202C631146656200F0D5F826207C
:10105C0000F006F907B030BD004400400008014024
:10106C00DC0200206C0002404E3000088000024080
:10107C00A00300207047FEE7FEE7FEE7FEE770479F
:10108C007047704708B500F093F8BDE8084000F0D1
:10109C0016B90000014800F093B900BFDC02002033
:1010AC00014800F08DB900BFA003002008B5402016
:1010BC0000F00AFBBDE80840802000F005BB0000F2
:1010CC00014800F0DCBE00BF24040020014800F001
:1010DC00D6BE00BF60030020014800F0D0BE00BFA8
:1010EC0020030020014801F033BA00BF6404002043
:1010FC004FF4005000F0E8BA0F4B1A6842F00102AE
:10110C001A6059680D4A0A405A601A6822F08472B3
:10111C0022F480321A601A6822F480221A605A680B
:10112C0022F4FE025A604FF41F029A604FF00062E4
:10113C00034B9A60704700BF001002400000FFF89C
:10114C0000ED00E038B50E4B054618784FF47A7375
:10115C00B3FBF0F30B4A1068B0FBF3F000F08CF823
:10116C00044658B90F2D09D8024629464FF0FF30D6
:10117C0000F042F8044B20461D6038BD012038BDFC
:10118C000C0000200800002010000020074A08B5C1
:10119C001368032043F01003136000F01BF80020C9
:1011AC00FFF7D0FFFFF734FE002008BD00200240FF
:1011BC00034A044B11681B780B441360704700BF43
:1011CC00A40400200C000020014B1868704700BFDD
:1011DC00A4040020074A0002D36800F4E06023F462
:1011EC00E0631B041B0C43F0BF6343F40033034365
:1011FC00D360704700ED00E0174B30B5DC68C4F3EA
:10120C000224C4F10703251D042B28BF0423062D3B
:10121C004FF0010598BF002405FA03F303F1FF33E7
:10122C0088BF033C1940A14005FA04F4013C22405C
:10123C00002842EA01024FEA0212AFBF00F16040FF
:10124C00064B00F00F00D2B2A5BFD2B200F5614040
:10125C001A5480F8002330BD00ED00E014ED00E0DE
:10126C000123420900F01F0003FA00F0014B43F880
:10127C002200704700E100E00138B0F1807F0AD213
:10128C00F021064B064A586082F8231000200722F2
:10129C0098601A6070470120704700BF10E000E0B2
:1012AC0000ED00E0044B04281A680CBF42F0040265
:1012BC0022F004021A60704710E000E0704708B595
:1012CC00FFF7FCFF08BD000010B550B314220168F5
:1012DC00154B84680B44B3FBF2F39B000364134B74
:1012EC000A68C363436822F47F522343C46822F024
:1012FC003002234304692343446923438469234311
:10130C00C469234313430B600122002380F821207E
:10131C008362C36203634363836380F8203018469F
:10132C0010BD012010BD00BFF8FFFDBF0000024042
:10133C0090F8213010B5022B03D0042383630120D5
:10134C0010BD03681A6822F00E021A601A6822F0A7
:10135C0001021A60184A93421FD0143293421ED0D5
:10136C00143293421DD0143293421DD01432934246
:10137C001DD0143293420CBF4FF480134FF0807386
:10138C000E4A00245360012380F82130436B80F80F
:10139C0020407BB19847204610BD0123F0E7102375
:1013AC00EEE74FF48073EBE74FF48053E8E74FF42C
:1013BC008033E5E7184610BD0800024000000240EB
:1013CC0070B40425C66B026C3468036895402542E2
:1013DC00196832D04D0730D51A6896065EBF1A6868
:1013EC0022F004021A603E4A934219D014329342FE
:1013FC0018D01432934217D01432934217D01432AF
:10140C00934217D0143293420CBF4FF480034FF029
:10141C008063344A5360C36A002B5ED070BC18479B
:10142C000423F6E74023F4E74FF48063F1E74FF42D
:10143C008043EEE74FF48023EBE7022595402542ED
:10144C0035D08D0733D51A68940606D41A6822F065
:10145C000A021A60012280F82120214A934219D0F5
:10146C001432934218D01432934217D01432934250
:10147C0017D01432934217D0143293420CBF4FF44E
:10148C0000134FF00073174A5360002380F820308C
:10149C00836AC1E70223F6E72023F4E74FF40073D5
:1014AC00F1E74FF40053EEE74FF40033EBE7082578
:1014BC009540254211D009070FD5196821F00E016E
:1014CC001960012303FA02F27260836380F8213001
:1014DC00002380F82030036B9EE770BC704700BF80
:1014EC0008000240000002402DE9F74F002216468A
:1014FC00654BDFF8A4E1DFF8A4C14FF001080C68DC
:10150C0008FA06F808EA0404A0457FD14D68122DAC
:10151C0000F0AF8000F28880022D00F0A7807CD80C
:10152C00002D00F08E80012D00F09E804FF00F09F1
:10153C00FF2C93BF824606F18045083DD0F800B0E1
:10154C0092BFB500D0F804B0AD0009FA05F82BEA4B
:10155C00080802FA05F588BF00F1040A48EA0505F7
:10156C00CAF80050D1F804A01AF0805F4ED0474D55
:10157C00464FAD6926F0030845F00105BD61BD6914
:10158C0008F1804805F00105019508F5803806F052
:10159C00030B019D4FEA8B0BD8F8085009FA0BF995
:1015AC0025EA09093A4DA84268D005F58065A8429C
:1015BC0066D005F58065A84264D005F58065A84223
:1015CC000CBF0325042505FA0BF545EA0905C8F8F7
:1015DC0008501D681AF4803F14BF2543A5431D60B5
:1015EC005D681AF4003F14BF2543A5435D609D68F8
:1015FC001AF4801F14BF2543A5439D60DD681AF4BF
:10160C00001F14BF2C4325EA0404DC600136102EA5
:10161C007FF473AF03B0BDE8F08F032D22D0112DF2
:10162C0084D1CA68043281E71A4FBD4209D012D85E
:10163C00DFF86C904D4504D009F580394D457FF4A9
:10164C0075AF8A68C2B1012A0CBFC0F81080C0F80F
:10165C00148008226AE77545F3D06545F1D0DFF8B0
:10166C004490EBE7002261E7CA685FE7CA6808327A
:10167C005CE7CA680C3259E7042257E70025A2E759
:10168C000125A0E702259EE700040140001002405E
:10169C000008014000002110000031100000321041
:1016AC0000001110000022108368194214BF0120A1
:1016BC00002070470AB1016170470904FBE7C36859
:1016CC005940C1607047000008B5044B596901428C
:1016DC0002D05861FEF75AFD08BD00BF000401405E
:1016EC0003682DE9F341DB07054610D42B689F07EF
:1016FC005ED42B68190700F195802B685A0700F10E
:10170C00BF80EA69002A40F02D81002014E0904C43
:10171C00636803F00C03042B07D0636803F00C031D
:10172C00082B0CD16368DE0309D523689C03DDD537
:10173C006B68002BDAD1012002B0BDE8F0816B6838
:10174C00B3F5803F10D1236843F480332360FFF757
:10175C003BFD064623689803C8D4FFF735FD801B74
:10176C006428F7D90320E7E79BB9236823F4803377
:10177C002360236823F480232360FFF725FD0646AE
:10178C0023689903B2D5FFF71FFD801B6428F7D996
:10179C00E8E7B3F5A02F236803D143F4802323603B
:1017AC00D1E723F480332360236823F48023CDE72F
:1017BC00674C636813F00C0F07D0636803F00C03DD
:1017CC00082B10D16368DA030DD423689B0702D56C
:1017DC002B69012BAFD123686A6923F0F80343EA24
:1017EC00C203236085E72A695A4B6AB101221A6049
:1017FC00FFF7EAFC064623689F07ECD4FFF7E4FCEE
:10180C00801B0228F7D9ADE71A60FFF7DDFC06460E
:10181C00236898077FF56DAFFFF7D6FC801B022875
:10182C00F6D99FE7AA694A4C4B4BDAB101221A60F0
:10183C00FFF7CAFC0646636A9B070DD54FF4FA52B4
:10184C00464B1B68B3FBF2F3019300BF019B5A1E7E
:10185C000192002BF9D150E7FFF7B6FC801B022850
:10186C00E9D97FE71A60FFF7AFFC0646636A9F076A
:10187C007FF543AFFFF7A8FC801B0228F6D971E770
:10188C00334CE369D80024D40127E36943F0805337
:10189C00E361E36903F080530093009B304E33689F
:1018AC00D90518D5EB68012B26D1236A43F0010327
:1018BC002362FFF789FC41F288368046236A9B0736
:1018CC003FD5002F3FF41DAFE36923F08053E36154
:1018DC0017E70027E2E7336843F480733360FFF7C0
:1018EC0073FC80463368DA05DCD4FFF76DFCA0EBA3
:1018FC0008006428F6D935E7ABB9236A41F2883879
:10190C0023F001032362236A23F004032362FFF70D
:10191C005BFC0646236A9807D3D5FFF755FC801B62
:10192C004045F7D91EE7052B236A03D143F0040386
:10193C002362BAE723F001032362236A23F0040332
:10194C00B6E7FFF741FCA0EB0800B042B6D909E7B7
:10195C000010024000004242800442420800002075
:10196C0000700040224C636803F00C03082B3FF41A
:10197C00E2AE00231F4E022A33602BD1FFF724FC6A
:10198C000746236899011FD42B6AB3F5803F05D114
:10199C006268A96822F400320A436260696A62686C
:1019AC000B4322F474121343636001233360FFF77B
:1019BC000BFC054623689A013FF5A7AEFFF704FC24
:1019CC00401B0228F6D9CDE6FFF7FEFBC01B022810
:1019DC00D7D9C7E6FFF7F8FB054623689B017FF5CF
:1019EC0094AEFFF7F1FB401B0228F6D9BAE600BF14
:1019FC00001002406000424230B5194B87B002AC77
:101A0C0003F11005224618685968083303C2AB422B
:101A1C001446F7D101238DF80430022311498DF8B7
:101A2C0005304B6803F00C02082A17D1C3F383422C
:101A3C0006A80244DB0312F8102C0CD54B680A489C
:101A4C00C3F34043504306AA134413F8143CB0FBB1
:101A5C00F3F007B030BD05485043FAE70248F8E709
:101A6C00902F00080010024000127A0000093D007F
:101A7C004D4A2DE9F0411368054603F007038B42EC
:101A8C000E4628D32A68910732D4D20738D4464A56
:101A9C00136803F007039E4273D32A68434C12F079
:101AAC00040F79D1130706D563682A6923F46053B0
:101ABC0043EAC2036360FFF79FFF63683C4AC3F3CA
:101ACC000313D35CD8403B4B18600020FFF73AFB64
:101ADC000020BDE8F081136823F007030B4313606B
:101AEC00136803F007039942CCD00120BDE8F081C4
:101AFC002E49A8684B6823F0F00303434B60C4E7FE
:101B0C006A682A4C012A23681CD113F4003FECD0DC
:101B1C00636841F2883823F0030313436360FFF7D3
:101B2C0053FB6B680746012B14D1636803F00C035D
:101B3C00042BACD0FFF748FBC01B4045F5D9032064
:101B4C00BDE8F081022A02D113F0007FDFE713F029
:101B5C00020FDCE7022B0FD1636803F00C03082B98
:101B6C0095D0FFF731FBC01B4045F5D9E7E7FFF7F0
:101B7C002BFBC01B4045E2D8636813F00C0FF6D169
:101B8C0085E7136823F0070333431360136803F0EE
:101B9C0007039E42A9D180E76368E96823F4E063F8
:101BAC000B4363607EE700BF002002400010024040
:101BBC006F30000808000020014B1868704700BF08
:101BCC0008000020044B054A5B68C3F30223D35C76
:101BDC00034A1068D8407047001002407F3000085C
:101BEC0008000020044B054A5B68C3F3C223D35C96
:101BFC00034A1068D8407047001002407F3000083C
:101C0C0008000020036A70B523F001030362036A25
:101C1C00446882690D6822F073022A438D6823F0B0
:101C2C0002032B430A4DA8420BD1CD6823F00803C5
:101C3C002B438E694D6924F44074354323F004031F
:101C4C002C43446082614A684263036270BD00BFEA
:101C5C00002C0140036A70B523F480730362036A9D
:101C6C004468C2690D6822F073022A438D6823F41C
:101C7C00007343EA05230B4DA8420DD1CD6823F424
:101C8C00006343EA05238E694D6924F440543543BF
:101C9C0023F4806344EA05144460C2614A68C26359
:101CAC00036270BD002C0140036A30B523F48053ED
:101CBC000362036A4468C2690D6822F4E64242EA90
:101CCC0005228D6823F4005343EA0533064DA842E0
:101CDC0002BF4D6924F4804444EA85144460C26117
:101CEC004A680264036230BD002C01400368002086
:101CFC00DA6842F00102DA601A6842F001021A60F6
:101D0C007047704790F83C3070B5012B4FF00203D0
:101D1C001CD0012280F83D30036880F83C209A6882
:101D2C0022F47F4222F077029A600A68402A79D026
:101D3C0019D8102A00F093800AD8002A00F0898064
:101D4C00012380F83D30002380F83C30184670BDEC
:101D5C00202A00F08A80302AF2D19A6822F0700290
:101D6C0042F0370236E0702A36D01BD8502A42D0C7
:101D7C00602AE5D11C6A4D6824F01004CE681C6200
:101D8C0099691A6A21F4704122F0A00242EA051204
:101D9C0041EA063199611A629A6822F0700242F0A7
:101DAC00670217E0B2F5805F11D0B2F5005FC7D1C2
:101DBC008A684D689C68C9682A4324F47F4442EAC7
:101DCC00012222439A609A6842F4804202E09A68A7
:101DDC0022F007029A60B3E78A684D689C68C9686C
:101DEC002A4324F47F4442EA012222439A609A68EF
:101DFC0042F07702EEE74C68CE68196A1D6A21F052
:101E0C000A0125F001051D629A69214322F0F002B6
:101E1C0042EA06129A6119629A6822F0700242F044
:101E2C005702D7E74C68CE68196A1D6A21F00A017F
:101E3C0025F001051D629A69214322F0F00242EA65
:101E4C0006129A6119629A6822F0700242F04702F7
:101E5C00C0E79A6822F0700242F00702BAE79A686B
:101E6C0022F0700242F01702B4E79A6822F0700276
:101E7C0042F02702AEE7704770477047704703681F
:101E8C0010B51A69044691070ED5DA6892070BD57E
:101E9C006FF002021A6101229B6902779B0777D0CF
:101EAC00FFF7EAFF0023237723681A69500710D540
:101EBC00DA6851070DD56FF004021A6102229B6992
:101ECC00227713F4407F204668D0FFF7D5FF00231C
:101EDC00237723681A6912070FD5DA6810070CD517
:101EEC006FF008021A610422DB69227799072046F9
:101EFC005AD0FFF7C1FF0023237723681A69D20653
:101F0C0010D5DA68D0060DD56FF010021A610822D0
:101F1C00DB69227713F4407F20464BD0FFF7ACFFF0
:101F2C000023237723681A69D10708D5DA68D2070A
:101F3C0005D56FF0010220461A61FEF765FC236897
:101F4C001A69100608D5DA68110605D56FF08002FB
:101F5C0020461A6100F09BF923681A69520608D5CD
:101F6C00DA68500605D56FF0400220461A61FFF77B
:101F7C0085FF23681A69910622D5DA6892061FD567
:101F8C006FF020022046BDE810401A6100F07EB9C7
:101F9C00FFF771FF2046FFF770FF83E7FFF76BFF3A
:101FAC002046FFF76AFF92E7FFF765FF2046FFF731
:101FBC0064FFA0E7FFF75FFF2046FFF75EFFAFE788
:101FCC0010BD00001A4A036890420AD0B0F1804F4D
:101FDC0007D0A2F59432904203D002F58062904271
:101FEC0015D14A6823F070031343114A90420AD06A
:101FFC00B0F1804F07D0A2F59432904203D002F595
:10200C008062904203D1CA6823F4407313434A6937
:10201C0023F08003134303608B68C3620B688362F5
:10202C00034B984204BF0B69036301234361704760
:10203C00002C014010B50446A0B190F83D3003F0DF
:10204C00FF021BB980F83C20FEF732FF0223206808
:10205C0084F83D30211DFFF7B5FF0123002084F8E3
:10206C003D3010BD012010BD10B50446A0B190F854
:10207C003D3003F0FF021BB980F83C20FFF741FE16
:10208C000223206884F83D30211DFFF79BFF0123BC
:10209C00002084F83D3010BD012010BD036A70B5DE
:1020AC0023F010030362036A446882690D6822F40A
:1020BC00E64242EA05228D6823F0200343EA051329
:1020CC000B4DA8420DD1CD6823F0800343EA0513D4
:1020DC008E694D6924F44064354323F0400344EA8F
:1020EC008504446082614A688263036270BD00BFEC
:1020FC00002C014038B590F83C300446012B4FF0D1
:10210C00020025D0012384F83D0084F83C300C2AD1
:10211C0018D8DFE802F0071717171E1717172F1715
:10212C00171740002068FFF76DFD236809699A694D
:10213C0042F008029A619A6922F004029A619A6943
:10214C000A439A610123002084F83D3084F83C0056
:10215C0038BD2068FFF7A2FF236809699A6942F429
:10216C0000629A619A6922F480629A619A6942EAE1
:10217C000122E6E72068FFF76DFD23680969DA693B
:10218C0042F00802DA61DA6922F00402DA61DA69F3
:10219C000A43DA61D6E72068FFF786FD23680969F0
:1021AC00DA6942F40062DA61DA6922F48062DA6197
:1021BC00DA6942EA0122ECE710B50124036A8C408B
:1021CC0023EA04030362036A8A401A43026210BDC5
:1021DC0010B5044601220068FFF7EEFF2368064A9B
:1021EC000020934202BF5A6C42F400425A641A68AF
:1021FC0042F001021A6010BD002C014090F83C30F6
:10220C00012B1FD0CB688A6823F4407313434A68B0
:10221C0023F4806313430A6823F4006313430A69AD
:10222C0023F4805313434A6923F4005313438A69FC
:10223C0023F44043134302685364002380F83C307A
:10224C00184670470220704790F83C3010B5012BAF
:10225C004FF0020318D080F83D3003680C685A68C0
:10226C00496822F070025A605A6822435A609A6890
:10227C0022F080029A609A680A439A60012380F8DF
:10228C003D30002380F83C30184610BD7047704735
:10229C000368DA6822F49072DA605A6922F001025B
:1022AC005A61202380F83A30704700002DE9F0473E
:1022BC000568C2682B69016923F4405313432B61F1
:1022CC008368EA680B43416922F4B05222F00C0295
:1022DC000B431343EB606B69826923F44073134324
:1022EC006B61404B81469D424FF0190446D1FFF77C
:1022FC0079FC04FB00F3D9F804604FF06408B600D5
:10230C00B3FBF6F3B3FBF8F31E01FFF76BFC604372
:10231C00D9F804309B00B0FBF3F7FFF763FC604384
:10232C00D9F804309B00B0FBF3F3B3FBF8F308FBD4
:10233C0013731B013233B3FBF8F303F0F007FFF711
:10234C0051FC6043D9F804209200B0FBF2FAFFF77D
:10235C0049FC6043D9F804309B00B0FBF3F3B3FBAA
:10236C00F8F308FB13A31B013233B3FBF8F303F0B0
:10237C000F033B433344AB60BDE8F087FFF722FC0F
:10238C0004FB00F3D9F804604FF06408B600B3FB0B
:10239C00F6F3B3FBF8F31E01FFF714FC6043D9F816
:1023AC0004309B00B0FBF3F7FFF70CFC6043D9F84B
:1023BC0004309B00B0FBF3F3B3FBF8F308FB13738F
:1023CC001B013233B3FBF8F303F0F007FFF7FAFB12
:1023DC006043D9F804209200B0FBF2FAFFF7F2FB4D
:1023EC00B7E700BF0038014010B5044640B390F881
:1023FC00393003F0FF021BB980F83820FEF7D8FD06
:10240C002423226884F83930D368204623F40053FF
:10241C00D360FFF74BFF236800201A6922F4904227
:10242C001A615A6922F02A025A61DA6842F400529F
:10243C00DA602023E06384F8393084F83A3010BD38
:10244C00012010BD90F83930202B18D1A9B1A2B1C0
:10245C0090F83830012B12D0C284828400232122C0
:10246C0001620168C36380F83920CA6880F838308B
:10247C0042F08002CA601846704701207047022063
:10248C00704790F83A30202B20D1E9B1E2B190F8A6
:10249C003830012B1AD0C285828500232222C363D7
:1024AC0080F83A2002688162D16880F8383041F4B3
:1024BC008071D1605169184641F001015161D168B8
:1024CC0041F02001D1607047012070470220704715
:1024DC00704790F83A3010B5222B36D183680169D9
:1024EC00B3F5805F0268836A23D15268E9B9C2F3FD
:1024FC00080223F8022B8362C48D013CA4B2C4856C
:10250C008CB90368DA6822F02002DA60DA6822F407
:10251C008072DA605A6922F001025A61202380F835
:10252C003A30FEF761FA002010BDD2B223F8012B2D
:10253C00E1E721B9591C526881621A70DCE75268D4
:10254C00591C816202F07F02F7E7022010BD704730
:10255C00036870B51A6804461607D9685D6907D117
:10256C0096065AD58D0658D5BDE87040FFF7B1BF19
:10257C0015F0010502D111F4907F4ED0D30705D58B
:10258C00CE0542BFE36B43F00103E363500704D570
:10259C001DB1E36B43F00203E363930704D51DB154
:1025AC00E36B43F00403E363160704D51DB1E36B3F
:1025BC0043F00803E363E36B002B66D0950604D568
:1025CC00880602D52046FFF784FF236820465D6904
:1025DC00E26B110702D415F040051AD0FFF758FE34
:1025EC0023685A69520610D55A69606B22F0400272
:1025FC005A6150B1254B4363FEF79AFE002844D034
:10260C00606BBDE87040436B18472046FFF79FFF97
:10261C0070BDFFF79CFFE56370BD160627D50D0650
:10262C0025D594F83920212A2FD1A268B2F5805FE4
:10263C00226A17D11188C1F308015960216979B94F
:10264C0002322262E28C013A92B2E284EAB9DA688E
:10265C0022F08002DA60DA6842F04002DA6070BD83
:10266C000132EEE7511C216212785A60EAE75006FB
:10267C000BD54A0609D5DA68204622F04002DA600A
:10268C00202384F83930FFF723FF70BD9D26000806
:10269C0008B50023406AC385C384FFF758FF08BD03
:1026AC0070B500250C4E0D4CA41BA410A54209D1ED
:1026BC0000F05CFC00250A4E0A4CA41BA410A54299
:1026CC0005D170BD56F8253098470135EEE756F820
:1026DC00253098470135F2E7BC300008BC300008C3
:1026EC00BC300008C03000080EB44FF4027100B5C5
:1026FC009CB0ADF814106FF00041049107914FF6A7
:10270C00FF711DAB02900690084853F8042BADF8EE
:10271C001610006802A9019300F06EF80022029BCB
:10272C001A701CB05DF804EB03B070471400002065
:10273C00034611F8012B03F8012B002AF9D170473D
:10274C002DE9F0478E6882469E420C46914698468B
:10275C0035D88A8912F4906F31D002232568096923
:10276C006F1A656905EB450595FBF3F508F1010357
:10277C003B449D4238BF1D46530531D5294600F0D8
:10278C0047FB064650B90C23CAF80030A3894FF01A
:10279C00FF3043F04003A381BDE8F0873A4621693E
:1027AC0000F0C4FAA38923F4906343F08003A3815F
:1027BC0026613E44266046466561ED1BA560464594
:1027CC0028BF464649463246206800F0BAFAA3684C
:1027DC0000209B1BA36023681E442660BDE8F08785
:1027EC002A4600F073FB06460028E1D121695046C9
:1027FC0000F0C2FAC7E700002DE9F04F9DB003933B
:10280C008B8980461C060D4616460FD50B696BB995
:10281C00402100F0FDFA2860286128B90C23C8F883
:10282C0000304FF0FF30C4E040236B61002309936C
:10283C0020238DF8293030234FF0010B8DF82A30EE
:10284C0037463C4614F8013B002B3CD1B7EB060A4B
:10285C000BD05346324629464046FFF771FF0130F4
:10286C0000F0A280099B534409933B78002B00F0A5
:10287C009B8000234FF0FF3204930793059206933D
:10288C008DF853301A9305222178504800F040FA05
:10289C00671C049BD8B9D90644BF20228DF853205D
:1028AC001A0744BF2B228DF8532022782A2A16D0DF
:1028BC0000210A20079A27463B780134303B092B2C
:1028CC0050D9C9B111E0252BC0D02746B9E73F4AF2
:1028DC003C46801A0BFA00F018430490D3E7039A95
:1028EC00111D12680391002A01DB079204E0524289
:1028FC0043F00203079204933B782E2B0DD17B7887
:10290C00791C2A2B32D1039B02371A1D1B680392A8
:10291C00002BB8BF4FF0FF3305932D4C03223978B1
:10292C00204600F0F5F938B14023001B03FA00F003
:10293C00049B0137034304933978062225487E1CF7
:10294C008DF8281000F0E4F9002835D0224BFBB9A3
:10295C00039B073323F0070308330393099B4B4472
:10296C0009936DE700FB02320121A4E700230A243E
:10297C00184605930F463A780131303A092A03D9A3
:10298C00002BCAD00590C8E704FB00200123F1E717
:10299C0003AB00932A46114B04A94046AFF30080C9
:1029AC00B0F1FF3F8146D9D1AB895B063FF539AF1A
:1029BC0009981DB0BDE8F08F03AB00932A46074B76
:1029CC0004A9404600F084F8EAE700BF873000080D
:1029DC008D30000891300008000000004D270008E1
:1029EC002DE9F04791461F468A680B6906469342CB
:1029FC00B8BF1346C9F8003091F843200C46DDF8F7
:102A0C00208012B10133C9F800302368990642BF07
:102A1C00D9F800300233C9F80030256815F00605E6
:102A2C0007D104F1190AE368D9F800209B1A9D42DA
:102A3C002ADB94F843302268003318BF0123920636
:102A4C002FD404F1430239463046C047013022D01E
:102A5C002368E56803F00603042B18BF0025D9F89A
:102A6C0000204FF0000908BFAD1AA368226908BF07
:102A7C0025EAE5759342C4BF9B1AED181A344D45EF
:102A8C001BD10020BDE8F087012352463946304661
:102A9C00C047013003D14FF0FF30BDE8F08701355E
:102AAC00C1E73020E11881F843005A1C94F8451016
:102ABC002244023382F84310C3E7012322463946ED
:102ACC003046C0470130E6D009F10109D7E70000D4
:102ADC002DE9F04317460A7E85B06E2A98460646C5
:102AEC000C460C9B01F1430E00F0BC801AD8632AF3
:102AFC002ED00AD8002A00F0C880582A00F08A800C
:102B0C0004F1420584F842202AE0642A01D0692AA3
:102B1C00F6D121681A6811F0800F23D0111D1960AD
:102B2C00136827E0732A00F0B48008D86F2A2AD0E3
:102B3C00702AE5D10A6842F020020A6003E0752A87
:102B4C0021D0782ADCD178226F4984F8452064E0C2
:102B5C001A6801F14205111D1960136884F842309E
:102B6C000123A3E011F0400F02F104011960D7D04A
:102B7C00B2F90030002B03DA2D225B4284F843209B
:102B8C0062490A2217E02068196810F0800F03D000
:102B9C00081D18600B6806E010F0400F01F10400EE
:102BAC001860F7D00B886F2A14BF0A2208225749E5
:102BBC00002084F843006568002DA560C0F29C805D
:102BCC00206820F004002060002B3FD1002D40F045
:102BDC0095807546082A0BD12368DA0708D5236936
:102BEC0062689A42DEBF302305F8013C05F1FF35DF
:102BFC00AEEB05032361CDF800803B4603AA2146CA
:102C0C003046FFF7EDFE013055D14FF0FF3005B0E7
:102C1C00BDE8F08381F845203C492268186812F021
:102C2C00800F00F104051D6001D0036802E0550619
:102C3C00FBD50388D00744BF42F0200222601BB9A9
:102C4C00226822F0200222601022B1E77546B3FB05
:102C5C00F2F002FB1033CB5C05F8013D0346002873
:102C6C00F5D1B7E708681A6810F0800F496904D0ED
:102C7C00101D18601368196007E010F0400F02F186
:102C8C00040018601368F6D0198000237546236180
:102C9C00B1E71A68111D1960156800216268284691
:102CAC0000F036F808B1401B6060636823610023B4
:102CBC0084F843309FE723692A4639463046C0479B
:102CCC000130A2D023689B0707D5002504F1190910
:102CDC00E368039A9B1A9D4205DBE068039B9842CC
:102CEC00B8BF184693E701234A4639463046C047D9
:102CFC0001308AD00135EBE7002BA7D10B7804F11A
:102D0C00420584F8423065E7A93000089830000885
:102D1C0010B5C9B202449042034601D1002010BD47
:102D2C001C7801308C42F6D1184610BD10B5431EEC
:102D3C000A44914200D110BD11F8014B03F8014F28
:102D4C00F7E7884210B501EB020303D8421E994203
:102D5C000CD110BD9842F9D28118D21AD34200D1AD
:102D6C0010BD13F8014D01F8014DF7E711F8014BB7
:102D7C0002F8014FEBE7000038B50546002943D0B7
:102D8C0051F8043C0C1F002BB8BFE41800F0D4F829
:102D9C001E4A1368104633B9636014602846BDE8B8
:102DAC00384000F0CAB8A3420BD92168621893428C
:102DBC0001BF1A685B685218226063600460EDE71B
:102DCC0013465A680AB1A242FAD919685818A04297
:102DDC000BD120680144581882421960DED110686A
:102DEC005268014419605A60D8E702D90C232B6051
:102DFC00D4E7206821188A4201BF1168526809186B
:102E0C00216062605C60C9E738BD00BFD002002061
:102E1C0070B5CD1C25F0030508350C2D38BF0C25DD
:102E2C00002D064601DBA94203D90C233360002098
:102E3C0070BD00F081F8234A1468214691B9224CE8
:102E4C0023681BB9304600F067F8206029463046ED
:102E5C0000F062F8431C26D10C233046336000F09E
:102E6C006CF8E4E70B685B1B1AD40B2B0FD90B60C7
:102E7C00CC18CD50304600F060F804F10B00231D47
:102E8C0020F00700C31A1BD05A42E25070BD8C428E
:102E9C000BBF63684B681360636018BF0C46E9E7AF
:102EAC000C464968CAE7C41C24F00304A04205D0B0
:102EBC00211A304600F030F80130CDD02560D9E72A
:102ECC0070BD00BFD0020020D4020020F8B5074628
:102EDC0014460E4621B91146BDE8F840FFF798BFDD
:102EEC0022B9FFF749FF25462846F8BD00F026F821
:102EFC0084420FD921463846FFF78AFF0546002841
:102F0C00F2D031462246FFF711FF31463846FFF723
:102F1C0033FFE9E73546E7E738B50023054C0546AE
:102F2C000846236000F014F8431C02D1236803B157
:102F3C002B6038BDA80400207047704751F8040C72
:102F4C000028A0F10400BCBF0B58C018704700004B
:102F5C00044B0246196809B9034919601868024400
:102F6C001A607047D8020020AC040020F8B500BFEE
:102F7C00F8BC08BC9E467047F8B500BFF8BC08BC4E
:042F8C009E467047A6
:102F900002030405060708090A0B0C0D0E0F10109A
:102FA0000A0D20554D494553432050415049455243
:102FB0002057204E415045445A4945202121212087
:102FC0000A0D000A0D2053617665643A20257320AE
:102FD0002C206A65737420746F202564207A6E61DA
:102FE0006B6F77207720427261696C6C6527752E54
:102FF0000A0D20526F7A706F637A796E616D20646A
:1030000072756B6F77616E6965206C696E692E2EC3
:103010002E0A0D00577069737A206B6F6C656A6EAB
:1030200061206C696E696520646F206472756B75D0
:103030003A200A0D00577069737A206C696E6965D1
:1030400020646F206472756B753A200A0D002E2E75
:103050005C2E2E5C2E2E5C5372635C73746D333267
:10306000663178785F68616C5F6D73702E63000005
:103070000000000000000001020304060708090028
:1030800000000001020304232D302B2000686C4C4B
:103090000065666745464700303132333435363790
:1030A00038394142434445460030313233343536B5
:0C30B00037383961626364656600000017
:0430BC0031010008D6
:0430C0000D010008F6
:1030C4000100FFFF0100FFFF00A24A04010000000D
:1030D40010000000180000200000000000000000A4
:1030E40000000000000000000000000000000000DC
:1030F40000000000000000000000000000000000CC
:1031040000000000000000000000000000000000BB
:1031140000000000000000000000000000000000AB
:10312400000000000000000000000000000000009B
:08313400000000000000000093
:040000050800014DA1
:00000001FF
